:060000000A128A11122809
:10000800FE00030E83120313B0000408B1000A08AF
:10001800B2007F08B3000A128A112D280A128A1129
:1000280015280A128A1105240A128A11C3000A1215
:100038008A1106240A128A11C400BD01BE01BF013B
:10004800C001C101C201FC01FD0183010A128A112C
:10005800E52A8C1E30283128CD281A0899007830D6
:100068001A06031D382839289328113083120313E0
:10007800AF003930AE00AE0B3F28AF0B3F28442805
:100088000D308312031399007D08A5007C08A40095
:100098000A128A11E4200A128A11113083120313FA
:1000A800AF003930AE00AE0B5728AF0B57285C288D
:1000B8008312031341089900113083120313AF0010
:1000C8003930AE00AE0B6628AF0B66286B2883125A
:1000D80003133F089900113083120313AF0039301E
:1000E800AE00AE0B7528AF0B75287A288312031360
:1000F8003D089900113083120313AF003930AE0068
:10010800AE0B8428AF0B842889280D308312031383
:1001180099000D3099000130C3000030C4006F30E1
:100128001A06031D98289928CD2811308312031325
:10013800AF003930AE00AE0B9F28AF0B9F28A42824
:100148000D308312031399003F300A128A11C2231B
:100158000A128A11831203138C1EB328B428AE28FE
:100168001A0899001A088600113083120313AF0089
:100178003930AE00AE0BBE28AF0BBE28C3280D30F9
:100188008312031399000D3099000130C300003029
:10019800C4000C1FD028D128D9281E08AE00AF01F2
:1001A8002E08FC002F08FD000C133308FF0032084E
:1001B8008A0031088400300E8300FE0E7E0E09008E
:1001C8006430F7000030F800831203132508FA00A2
:1001D8002408F9000A128A116D210A128A11780876
:1001E80083120313A7007708A6000A30F70000302F
:1001F800F8002508F3002408F2006430F00000300D
:10020800F1000A128A118C220A128A117108FA0066
:100218007008F9000A128A116D210A128A117808E9
:1002280083120313A9007708A8002508F3002408FF
:10023800F2006430F0000030F1000A128A118C22BA
:100248000A128A11710883120313AD007008AC00FA
:100258000A30F0000030F1002D08F3002C08F200FD
:100268000A128A118C220A128A1171088312031346
:10027800AB007008AA002708F1002608F0000A124F
:100288008A11D6210A128A11710883120313C20037
:100298007008C1002908F1002808F0000A128A1124
:1002A800D6210A128A11710883120313C00070083C
:1002B800BF002B08F1002A08F0000A128A11D62183
:1002C8000A128A11710883120313BE007008BD0058
:1002D800080083120313A101F81F732974297B29CD
:1002E800F709F809F70A0319F80AA101A10AFA1F80
:1002F8007E297F298829F909FA09F90A0319FA0ACE
:100308000130FB007B08A106A201A301770878044D
:1003180003198F299029C729A001A00A9E29013015
:100328000310F70DF80DFF3E031D94290130FB0063
:100338007B08A007F81FA129A229932901300310DF
:10034800A20DA30DFF3E031DA32978087A02031D01
:10035800AF2977087902031CB229B329BA2977088B
:10036800F9027808031CFA03FA0222140130031078
:10037800F80CF70CFF3E031DBB290130A002031D3A
:10038800C629C729A22921080319CB29CC29D12993
:10039800A209A309A20A0319A30A2308F80022083C
:1003A800F70008000C2A3030F0000030F100312A44
:1003B8003130F0000030F100312A3230F0000030E6
:1003C800F100312A3330F0000030F100312A3430A6
:1003D800F0000030F100312A3530F0000030F10033
:1003E800312A3630F0000030F100312A3730F00081
:1003F8000030F100312A3830F0000030F100312AA5
:100408003930F0000030F100312AF001F101312AD1
:100418007108003A0319112A092A7008003A0319C9
:10042800D729013A0319DC29033A0319E129013ACA
:100438000319E629073A0319EB29013A0319F029A8
:10044800033A0319F529013A0319FA290F3A03194E
:10045800FF29013A0319042A092A080002308A00F0
:100468000408840A82070034683465346C346C34B8
:100478006F34203477346F3472346C34643400341D
:1004880032342E34203445346E3476346934613451
:1004980072342034413453344334493449342C348D
:1004A800203469346E346734723465347334653497
:1004B80020346F34003431342E3420344C346534D5
:1004C80065347234203450344F3454342C3420344E
:1004D80069346E3467347234653473346534203467
:1004E8007834003469346E34673472346534733464
:1004F8006534203475346E34203463346134723496
:10050800613463347434653472343A3420340034DA
:10051800F601F31F902A912A982AF209F309F20AA0
:100528000319F30AF601F60AF11F9B2A9C2AA12A4D
:10053800F009F109F00A0319F10A700871040319A6
:10054800A62AA72AD62AF501F50AB52A01300310EA
:10055800F00DF10DFF3E031DAB2A0130F4007408C5
:10056800F507F11FB82AB92AAA2A71087302031DD0
:10057800BF2A70087202031CC22AC32AC92A70083B
:10058800F2027108031CF303F30201300310F10CAB
:10059800F00CFF3E031DCA2A0130F502031DD52ABF
:1005A800D62AB92A76080319DA2ADB2AE02AF209B8
:1005B800F309F20A0319F30A7308F1007208F0004C
:1005C80008000A128A1130230A128A111130831284
:1005D8000313BC003930BB00BB0BF02ABC0BF02A5C
:1005E800F52A831203130C1EFA2AFB2A172B43033E
:1005F8004404031D002B012B172B28300A128A11E3
:100608007B230A128A110D308312031399000D30CF
:100618000A128A117B230A128A110D3083120313DE
:100628009900C301C4011F08C33908389F009F18E7
:100638001E2B1F2BEA2A043083120313BC003D3003
:10064800BB00BB0B252BBC0B252B831203139F145C
:10065800EA2A0A128A11122804308316031788001E
:10066800890104308316031385008601831203135E
:100678008601831603130F088F3940388F000F1433
:100688009F131F129F12831203131F083F398038CC
:100698009F001F08C33908389F001F1403308312B6
:1006A8000313B400B40B562B831603131812181532
:1006B80083160317871519308316031399009A01B7
:1006C8008312031398171813181683160313981612
:1006D800831203130C13831603130C1783120313CB
:1006E8008C12831603138C160B178B1708008312B2
:1006F8000313BA00B601B701872B0130B6070318F8
:10070800B70A0030B70736083A0784000A128A1178
:1007180032220A128A11003A031D932B942B812B43
:10072800B801B901B32B113083120313B500393066
:10073800B400B40B9D2BB50B9D2BA22B8312031376
:1007480038083A0784000A128A1132220A128A11DA
:1007580099000130B8070318B90A0030B9073908F9
:10076800803AB4003708803A3402031DBD2B36089E
:100778003802031CC02BC12B972B0800F200F30191
:10078800F401CC2B0130F3070318F40A0030F40706
:100798007308720784000A128A1132220A128A1117
:1007A800003A031DD82BD92BC62BF501F601F62BE1
:1007B8001130F1003A30F000F00BE02BF10BE02B98
:1007C80000007508720784000A128A1132220A1280
:1007D8008A118312031399000130F5070318F60AEA
:1007E8000030F6077608803AF0007408803A700204
:1007F800031D002C73087502031C032C042CDC2B2E
:0608080008000134003479
:08400000FF3FFF3FFF3FFF3FC0
:04400E00D420FF3F7C
:00000001FF
