:060000000A128A110E290C
:10000800F000030EF1000B1910200B183020710EB0
:100018008300F00E700E090003138312E83081008C
:100028000B11A00A20080A3C031D2F28A001850AED
:1000380005080A3C03198501050800218800050800
:10004800003C0319A10A2108002187002108063C69
:100058000319A1010800080003138312061F860A6A
:0C006800861F8603061A86010B10080094
:100200008A010A140F398207C034F934A434B03497
:10021000993492348234F8348034903416212E216B
:1002200035214D21532103138312152903178316FA
:1002300088018901031383168501860187018801DE
:100240000617861781131517951703138312850157
:10025000860187018801A001A1010800031383160C
:100260000F138F160F120F14080003138316811239
:10027000811101158114011403138312E8308100E8
:100280000B11080003138312E83081000B110313D4
:1002900083123D3081000B1108008B178B160B1158
:1002A0008B150B10080003138316161796170313EC
:0802B000831206080B10080080
:04400E00D420FF3F7C
:00000001FF
