:060000000A128A1110280B
:10000800FE00030E83160313AB000A08AC007F083A
:10001800AD000A128A11AB2E0A128A111328831214
:100028000313EE01EF0183160313DE01DF01E00184
:10003800E10183010A168A11752B831603133A0806
:100048008039C4003A08BF003F07CA00B91F2D28ED
:100058002E282F284A144A080319332834284328FD
:100068004A0A031D3828392841280030BA000030D0
:10007800B9000030B8000030B700B9174B2800307D
:10008800BA000030B9000030B8000030B7003E08B0
:100098008039BF003F08C4063E08BF003F07C900BB
:1000A800BD1F5728582859284914490803195D289D
:1000B8005E286D28490A031D622863286B280030D2
:1000C800BE000030BD000030BC000030BB00BD17D2
:1000D80075280030BE000030BD000030BC00003084
:1000E800BB004908031979287A287F284A08031D84
:1000F8007E287F2888280030BA000030B9000030F8
:10010800B8000030B700652B3708AE003D080A1666
:100118008A11AC220A128A11831603132F08D00001
:100128002E08CF004F08BF00C001C101C20142081C
:10013800C8004108C7004008C6003F08C50050086D
:10014800BF00C001C101C2014208CE004108CD0074
:100158004008CC003F08CB003808AE003C080A161F
:100168008A11AC220A128A11831603132F08D000B1
:100178002E08CF004F08BF00C001C101C2013F08CF
:10018800C507400803110318013E0319CC28C60708
:10019800410803110318013E0319D328C707420871
:1001A80003110318013E0319DA28C8075008BF00D5
:1001B800C001C101C2013F08CB0740080311031861
:1001C800013E0319E828CC07410803110318013E32
:1001D8000319EF28CD07420803110318013E03193C
:1001E800F628CE073908AE003B080A168A11AC2259
:1001F8000A128A11831603132F08D0002E08CF0085
:100208004F08BF00C001C101C2013F08C50740082F
:1002180003110318013E03191229C60741080311E7
:100228000318013E03191929C707420803110318C7
:10023800013E03192029C8075008BF00C001C101A9
:10024800C2013F08CB07400803110318013E0319F8
:100258002E29CC07410803110318013E031935293B
:10026800CD07420803110318013E03193C29CE07A4
:100278000830BF000310C50DC60DC70DC80DBF0B54
:100288003E293808AE003B080A168A11AC220A1229
:100298008A11831603132F08D0002E08CF004F08A9
:1002A800BF005008C000C101C2013F08C50740088F
:1002B80003110318013E03196229C60741080311F7
:1002C8000318013E03196929C707420803110318D7
:1002D800013E03197029C8073708AE003C080A1602
:1002E8008A11AC220A128A11831603132F08D00030
:1002F8002E08CF004F08BF005008C000C101C2013E
:100308003F08C507400803110318013E03198D294A
:10031800C607410803110318013E03199429C707AA
:10032800420803110318013E03199B29C807083026
:10033800BF000310C50DC60DC70DC80DBF0B9D2905
:100348003708AE003B080A168A11AC220A128A1135
:10035800831603132F08D0002E08CF004F08BF00C4
:100368005008C000C101C2013F08C5074008031179
:100378000318013E0319C129C607410803110318D0
:10038800013E0319C829C707420803110318013E93
:100398000319CF29C8073808AE003D080A168A1184
:1003A800AC220A128A11831603132F08D0002E08D4
:1003B800CF004F08BF005008C000C101C2013F086C
:1003C800CB07400803110318013E0319EC29CC0799
:1003D800410803110318013E0319F329CD07420808
:1003E80003110318013E0319FA29CE073908AE0094
:1003F8003C080A168A11AC220A128A1183160313C2
:100408002F08D0002E08CF004F08BF005008C000AA
:10041800C101C2013F08CB07400803110318013E80
:100428000319172ACC07410803110318013E0319C1
:100438001E2ACD07420803110318013E0319252A75
:10044800CE073908AE003D080A168A11AC220A12F6
:100458008A11831603132F08D0002E08CF004F08E7
:10046800BF005008C000C101C20108300310BF0D11
:10047800C00DC10DC20DFF3E031D3A2A3F08CB0730
:10048800400803110318013E03194B2ACC07410801
:1004980003110318013E0319522ACD07420803111C
:1004A8000318013E0319592ACE074508BF0046081C
:1004B800C0004708C1004808C20018300310C20C29
:1004C800C10CC00CBF0CFF3E031D622A3F08CB07BE
:1004D800400803110318013E0319732ACC07410889
:1004E80003110318013E03197A2ACD0742080311A4
:1004F8000318013E0319812ACE070830BF000310F4
:10050800C50DC60DC70DC80DBF0B832A4A0849077C
:10051800BF00C001C00D3F08823ECF00400803184D
:10052800013EFF3ED000B52A0130BF000310CB0DBD
:10053800CC0DCD0DCE0DBF0B9A2AC81FA42AA52A13
:10054800A62A4B140130BF000310C50DC60DC70DF8
:10055800C80DBF0BA82AFF30CF070318D00AFF30F9
:10056800D007CD1FB82AB92A982AC901C81FBD2AA1
:10057800BE2ADA2AFF304505BF00FF304605C00015
:10058800FF304705C1007F304805C20042084104DA
:1005980040043F040319D12AD22AD52AC901C90A1D
:1005A800DA2A4B1CD82AD92ADA2AD22A4908031966
:1005B800DE2ADF2A102B0130CB0700300318013068
:1005C800CC07003003180130CD0700300318013084
:1005D800CE074E1CF02AF12A102B4B08BF004C08FE
:1005E800C0004D08C1004E08C2000130C300420DD2
:1005F800C20CC10CC00CBF0CC30BFB2A4208CE00B6
:100608004108CD004008CC003F08CB000130CF079F
:100618000318D00A0030D0075008803AFF00803015
:100628007F02031D192BFF304F02031C1C2B1D2BAF
:10063800282B7F3083160313CE008030CD00003086
:10064800CC000030CB00592B831603135008803A96
:10065800FF0080307F02031D332B01304F02031847
:10066800362B372B432B003083160313CE00003074
:10067800CD000030CC000030CB00C401592B8316CC
:1006880003134F08CA00FF30CB05FF30CC057F307D
:10069800CD050030CE054A1C522B532B542BCD17B9
:1006A8004A08BF0003103F0CCE004408BF003F08B3
:1006B800CE044E08BA004D08B9004C08B8004B08E3
:1006C800B70008008312031323088039A800230801
:1006D800F9007907AE00A21F722B732B742B2E140E
:1006E8002E080319782B792B882B2E0A031D7D2BB6
:1006F8007E2B862B0030A3000030A2000030A10022
:100708000030A000A217902B0030A3000030A200F8
:100718000030A1000030A00027088039F9007908CE
:10072800A8062708F9007907AD00A61F9C2B9D2B6A
:100738009E2B2D142D080319A22BA32BB22B2D0AA7
:10074800031DA72BA82BB02B0030A7000030A60054
:100758000030A5000030A400A617BA2B0030A7006F
:100768000030A6000030A5000030A4002D080319B1
:10077800BE2BBF2BC42B2E08031DC32BC42BCD2B84
:100788000030A3000030A2000030A1000030A0001B
:10079800AA2E2008F00026080A168A1185220A12B5
:1007A8008A11710883120313B4007008B300330868
:1007B800F900FA01FB01FC017C08AC007B08AB00E6
:1007C8007A08AA007908A9003408F900FA01FB019F
:1007D800FC017C08B2007B08B1007A08B0007908F7
:1007E800AF002108F00025080A168A1185220A128E
:1007F8008A11710883120313B4007008B300330818
:10080800F900FA01FB01FC017908A9077A0803112C
:100818000318013E0319112CAA077B0803110318BA
:10082800013E0319182CAB077C0803110318013E7D
:1008380003191F2CAC073408F900FA01FB01FC016D
:100848007908AF077A0803110318013E03192D2C04
:10085800B0077B0803110318013E0319342CB107B4
:100868007C0803110318013E03193B2CB207220828
:10087800F00024080A168A1185220A128A117108C2
:1008880083120313B4007008B3003308F900FA01A7
:10089800FB01FC017908A9077A0803110318013E36
:1008A8000319572CAA077B0803110318013E0319E3
:1008B8005E2CAB077C0803110318013E0319652C55
:1008C800AC073408F900FA01FB01FC017908AF070D
:1008D8007A0803110318013E0319732CB0077B082B
:1008E80003110318013E03197A2CB1077C08031180
:1008F8000318013E0319812CB2070830F9000310D0
:10090800A90DAA0DAB0DAC0DF90B832C2108F00035
:1009180024080A168A1185220A128A11710883127C
:100928000313B4007008B3003308F9003408FA0060
:10093800FB01FC017908A9077A0803110318013E95
:100948000319A72CAA077B0803110318013E0319F2
:10095800AE2CAB077C0803110318013E0319B52C14
:10096800AC072008F00025080A168A1185220A1209
:100978008A11710883120313B4007008B300330896
:10098800F9003408FA00FB01FC017908A9077A0884
:1009980003110318013E0319D22CAA077B0803117F
:1009A8000318013E0319D92CAB077C08031103185F
:1009B800013E0319E02CAC070830F9000310A90D1B
:1009C800AA0DAB0DAC0DF90BE22C2008F0002408A1
:1009D8000A168A1185220A128A11710883120313D2
:1009E800B4007008B3003308F9003408FA00FB01BA
:1009F800FC017908A9077A0803110318013E0319B5
:100A0800062DAA077B0803110318013E03190D2DB3
:100A1800AB077C0803110318013E0319142DAC071A
:100A28002108F00026080A168A1185220A128A115E
:100A3800710883120313B4007008B3003308F90077
:100A48003408FA00FB01FC017908AF077A080311A2
:100A58000318013E0319312DB0077B080311031851
:100A6800013E0319382DB1077C0803110318013E14
:100A780003193F2DB2072208F00025080A168A112B
:100A880085220A128A11710883120313B4007008B0
:100A9800B3003308F9003408FA00FB01FC017908B7
:100AA800AF077A0803110318013E03195C2DB0073C
:100AB8007B0803110318013E0319632DB1077C0855
:100AC80003110318013E03196A2DB2072208F0002A
:100AD80026080A168A1185220A128A1171088312B9
:100AE8000313B4007008B3003308F9003408FA009F
:100AF800FB01FC0108300310F90DFA0DFB0DFC0D8C
:100B0800FF3E031D7F2D7908AF077A0803110318EC
:100B1800013E0319902DB0077B0803110318013E0D
:100B28000319972DB1077C0803110318013E031917
:100B38009E2DB2072908F9002A08FA002B08FB00A5
:100B48002C08FC0018300310FC0CFB0CFA0CF90CF8
:100B5800FF3E031DA72D7908AF077A080311031874
:100B6800013E0319B82DB0077B0803110318013E95
:100B78000319BF2DB1077C0803110318013E03199F
:100B8800C62DB2070830F9000310A90DAA0DAB0D48
:100B9800AC0DF90BC82D2E082D07F900FA01FA0D36
:100BA8007908823EB3007A080318013EFF3EB4007C
:100BB800FA2D0130F9000310AF0DB00DB10DB20DD3
:100BC800F90BDF2DAC1FE92DEA2DEB2D2F14013089
:100BD800F9000310A90DAA0DAB0DAC0DF90BED2D05
:100BE800FF30B3070318B40AFF30B407B11FFD2D57
:100BF800FE2DDD2DAD01AC1F022E032E1F2EFF3062
:100C08002905F900FF302A05FA00FF302B05FB0003
:100C18007F302C05FC007C087B047A0479040319D6
:100C2800162E172E1A2EAD01AD0A1F2E2F1C1D2EA3
:100C38001E2E1F2E172E2D080319232E242E552E57
:100C48000130AF07003003180130B0070030031837
:100C58000130B107003003180130B207321C352EBD
:100C6800362E552E2F08F9003008FA003108FB00FF
:100C78003208FC000130FD007C0DFC0CFB0CFA0C6A
:100C8800F90CFD0B402E7C08B2007B08B1007A08F5
:100C9800B0007908AF000130B3070318B40A003078
:100CA800B4073408803AFF0080307F02031D5E2EAF
:100CB800FF303302031C612E622E6D2E7F308312AB
:100CC8000313B2008030B1000030B0000030AF0034
:100CD8009E2E831203133408803AFF0080307F026F
:100CE800031D782E0130330203187B2E7C2E882EAC
:100CF800003083120313B2000030B1000030B0009E
:100D08000030AF00A8019E2E831203133308AE00F3
:100D1800FF30AF05FF30B0057F30B1050030B205B8
:100D28002E1C972E982E992EB1172E08F900031015
:100D3800790CB2002808F9007908B2043208A30037
:100D48003108A2003008A1002F08A00008000B1DE0
:100D5800AE2EAF2EE22E1430831203136E066F04EC
:100D6800031DB72EB82EBA2EEE01EF01831603131A
:100D78005F08803AA700831203136F08803A83162E
:100D880003132702031DCE2E831203136E08831646
:100D980003135E02031CD12ED22ED62E8312031308
:100DA8008715D92E8312031387110130EE07031814
:100DB800EF0A0030EF07E13081000B1183120C1F9E
:100DC800E62EE72E942F1F0C83160313A700270C7B
:100DD8000F39003A031DF12EF22E1A2F8312031336
:100DE8001E0883160313A700A801A901AA012A084F
:100DF800F3002908F2002808F1002708F000003065
:100E08000A128A1506200A128A1173088316031318
:100E1800A3007208A2007108A1007008A0000130A8
:100E28000A168A11D0240A128A11912F83120313E9
:100E38001F0C83160313A700270C0F39013A031D53
:100E4800262F272F4F2F831203131E0883160313F1
:100E5800A700A801A901AA012A08F3002908F2009D
:100E68002808F1002708F00000300A128A15062029
:100E78000A128A11730883160313A3007208A200CA
:100E88007108A1007008A00002300A168A11D02447
:100E98000A128A11912F831203131F0C831603134E
:100EA800A700270C0F39023A031D5B2F5C2F912FE7
:100EB800831203131E0883160313A700A80127082B
:100EC80083120313A4008316031328088312031341
:100ED800A5000030A600A700F430A8000130A90042
:100EE8000130AA000030AB001430AC000030AD0077
:100EF8000A168A11D5220A128A11831203132508A9
:100F080083160313E10083120313240883160313C3
:100F1800E0006108DF006008DE00831203130C1391
:100F2800831603132D08FF002C088A002B0E83005C
:100F3800FE0E7E0E0900073083160317880089010C
:100F48000730831603138500870186018312031374
:100F5800850186018701831603130F138F160F1659
:100F68000F14811281110108F83901388100E1302C
:100F7800831203138100831603139F131F129F12FA
:100F8800831203131F083F3980389F00C3309F0521
:100F98001F14CE2FCF2FD02F831203130C138316B9
:100FA80003130C170B118B160B178B173C3083167A
:100FB8000317BE00A330BD00D730BC000A30BB0009
:100FC80001300A168A117C250A128A113C308316D0
:100FD8000317BE00A330BD00D730BC000A30BB00E9
:0E0FE80002300A168A117C250A128A110800AE
:10100C00F800780803190B280C282028F31F0F2848
:10101C00102820287009FA007109FB007209FC00E5
:10102C007309FD00FA0A0319FB0A0319FC0A0319D8
:10103C00FD0A28287308FD007208FC007108FB00EB
:10104C007008FA007308720471047004031D2F28D1
:10105C00302839280030F3000030F2000030F10065
:10106C000030F000BD289630F90049280130F4001A
:10107C007408F90701300310FD0CFC0CFB0CFA0C86
:10108C00FF3E031D4128FE307D05031D4E284F28D1
:10109C003C286B280130F4007408F9070130FA077A
:1010AC00003003180130FB07003003180130FC0737
:1010BC00003003180130FD0701300310FD0CFC0C4F
:1010CC00FB0CFA0CFF3E031D6328FF307D05031D4E
:1010DC007028712850287D280130F9020130F40065
:1010EC000310FA0DFB0DFC0DFD0DF40B7628FC1B0B
:1010FC0080288128872802307902031886288728BF
:10110C00722879188A288B289328FF30FA05FF302B
:10111C00FB057F30FC05FF30FD050310F90C790849
:10112C00F400F501F601F70118300310F40DF50D7C
:10113C00F60DF70DFF3E031D9B287408FA04750885
:10114C00FB047608FC047708FD0478080319AF2823
:10115C00B028B528F31FB328B428B528FD177D088F
:10116C00F3007C08F2007B08F1007A08F00008001C
:10117C008312031352088039DF005208D700570737
:10118C00E100D11FCA28CB28CC28611461080319AF
:10119C00D028D128E128610A031DD528D628DE28BD
:1011AC000030D2000030D1000030D0000030CF0031
:1011BC00D117D201E9280030D2000030D100003024
:1011CC00D0000030CF0056088039E00060085F0680
:1011DC000319F128F228F3285F175608D700570790
:1011EC00E000D51FFA28FB28FC28601460080319BE
:1011FC00002901291129600A031D052906290E2938
:10120C000030D6000030D5000030D4000030D300C0
:10121C00D517D60119290030D6000030D500003082
:10122C00D4000030D3006108600203181E291F2966
:10123C0045295F1F2229232927298030D7005708E9
:10124C00DF066108E2006008E1006208E0004F0878
:10125C00E2005308CF006208D3005008E2005408A3
:10126C00D0006208D4005108E2005508D100620891
:10127C00D5005208E2005608D2006208D600E201FE
:10128C006008D700D8015808DA0061085702D90065
:10129C00031CDA035A08803AFF0080307F02031DDA
:1012AC0059291A305902031C5C295D29942983128F
:1012BC0003135208510450044F04031D6629682976
:1012CC00013069290030E2000030D2000030D1003A
:1012DC000030D0000030CF006008E1009C29621C77
:1012EC007829792980296208D7000310570C013816
:1012FC00E20082290310E20C4F1C852986298729DC
:10130C00E2170130D700520DD20CD10CD00CCF0CFF
:10131C00D70B89290130D7005708E1078312031333
:10132C0060086102031C9B299C2975295F1B9F295E
:10133C00A029E9296108031DA429A529AE2900309B
:10134C00D2000030D1000030D0000030CF00152B7F
:10135C005308CF07540803110318013E0319B7298A
:10136C00D007550803110318013E0319BE29D107F4
:10137C00560803110318013E0319C529D207521C44
:10138C00C829C9299D2A621CCC29CD29D4296208D7
:10139C00D7000310570C0138E200D6290310E20CD9
:1013AC004F1CD929DA29DB29E2170130D700520D5D
:1013BC00D20CD10CD00CCF0CD70BDD290130D700BF
:1013CC005708E1079D2A5208803AFF005608803AD8
:1013DC007F02031DFB2955085102031DFB295408EC
:1013EC005002031DFB2953084F020318FE29FF2945
:1013FC00572AFF30D700FF30D800FF30D900FF301C
:10140C00DA005308DB005408DC005508DD005608F0
:10141C00DE004F08DB025008031C500F162A172A57
:10142C00DC025108031C510F1C2A1D2ADD02520834
:10143C00031C520F222A232ADE025B08D7075C0802
:10144C0003185C0F2A2A2B2AD8075D0803185D0F96
:10145C00302A312AD9075E0803185E0ADA075A08BF
:10146C00D2005908D1005808D0005708CF0080305E
:10147C00D7005708DF06E209E20A6208031D472A73
:10148C00482A652A0130CF07003003180130D007F5
:10149C00003003180130D107003003180130D20797
:1014AC00652A5308CF025408031C540FD002550868
:1014BC00031C550FD1025608031C560FD2025208BA
:1014CC00510450044F04031D6C2A6D2A992A62089A
:1014DC00031D712A722A992A0030D2000030D100E3
:1014EC000030D0000030CF00152B0130D700031096
:1014FC00CF0DD00DD10DD20DD70B7D2AE21F872A2F
:10150C00882A892A4F14621C8C2A8D2A902A03144B
:10151C00E20D922A0310E20D61080319962A972A0C
:10152C00992A0130E102D11F9C2A9D2A7B2AE001D5
:10153C00E21FA12AA22AB02A62087F390319A72A1E
:10154C00A82AAB2AE001E00AB02A4F1CAE2AAF2A27
:10155C00B02AA82A60080319B42AB52AE92A01304E
:10156C00CF07003003180130D007003003180130CA
:10157C00D107003003180130D207521CC62AC72AE3
:10158C00E92A4F08D7005008D8005108D900520852
:10159C00DA000130DB005A0DDA0CD90CD80CD70C60
:1015AC00DB0BD12A5A08D2005908D1005808D000B8
:1015BC005708CF00610A0319E42AE52AE92A013009
:1015CC00D7005708E107610A0319ED2AEE2AF32A1E
:1015DC006108031DF22AF32A012B0030D2000030DF
:1015EC00D1000030D0000030CF006108031DFF2A6D
:1015FC00002B012BDF01611C042B052B072BD117B2
:10160C000B2B7F30D7005708D1056108D70003108A
:10161C00570CD200DF1F132B142B152BD2170800DD
:10162C008316031720088039AD002008A500250774
:10163C00AF009F1F222B232B242B2F142F080319B1
:10164C00282B292B392B2F0A031D2D2B2E2B362B18
:10165C000030A00000309F0000309E0000309D0044
:10166C009F17A001412B0030A00000309F000030DC
:10167C009E0000309D0024088039AE002E082D06F7
:10168C000319492B4A2B4B2B2D172408A500250792
:10169C00AE00A31F522B532B542B2E142E080319C0
:1016AC00582B592B692B2E0A031D5D2B5E2B662B99
:1016BC000030A4000030A3000030A2000030A100D4
:1016CC00A317A401712B0030A4000030A30000303C
:1016DC00A2000030A1002F082E020318762B772BC6
:1016EC009D2B2D1F7A2B7B2B7F2B8030A500250863
:1016FC00AD062F08B0002E08AF003008AE001D0854
:10170C00B00021089D003008A1001E08B00022087E
:10171C009E003008A2001F08B00023089F0030086C
:10172C00A3002008B0002408A0003008A400B001D9
:10173C002E08A500A6012608A8002F082502A70040
:10174C00031CA8032808803AFF0080307F02031D89
:10175C00B12B1A302702031CB42BB52BEC2B8316A0
:10176C00031720081F041E041D04031DBE2BC02BD1
:10177C000130C12B0030B0000030A00000309F00C1
:10178C0000309E0000309D002E08AF00F42B301C62
:10179C00D02BD12BD82B3008A5000310250C0138E9
:1017AC00B000DA2B0310B00C1D1CDD2BDE2BDF2B55
:1017BC00B0170130A500200DA00C9F0C9E0C9D0CA9
:1017CC00A50BE12B0130A5002508AF0783160317E5
:1017DC002E082F02031CF32BF42BCD2B2D1BF72BD8
:1017EC00F82B412C2F08031DFC2BFD2B062C003055
:1017FC00A00000309F0000309E0000309D006D2D39
:10180C0021089D07220803110318013E03190F2C10
:10181C009E07230803110318013E0319162C9F077A
:10182C00240803110318013E03191D2CA007201CCA
:10183C00202C212CF52C301C242C252C2C2C300865
:10184C00A5000310250C0138B0002E2C0310B00C91
:10185C001D1C312C322C332CB0170130A500200D5F
:10186C00A00C9F0C9E0C9D0CA50B352C0130A500DB
:10187C002508AF07F52C2008803AFF002408803A91
:10188C007F02031D532C23081F02031D532C220817
:10189C001E02031D532C21081D020318562C572C15
:1018AC00AF2CFF30A500FF30A600FF30A700FF30A3
:1018BC00A8002108A9002208AA002308AB002408CC
:1018CC00AC001D08A9021E08031C1E0F6E2C6F2CE9
:1018DC00AA021F08031C1F0F742C752CAB022008C6
:1018EC00031C200F7A2C7B2CAC022908A5072A0894
:1018FC0003182A0F822C832CA6072B0803182B0FF6
:10190C00882C892CA7072C0803182C0AA807280850
:10191C00A00027089F0026089E0025089D00803007
:10192C00A5002508AD06B009B00A3008031D9F2C90
:10193C00A02CBD2C01309D070030031801309E07F0
:10194C000030031801309F07003003180130A00746
:10195C00BD2C21089D022208031C220F9E02230885
:10196C00031C230F9F022408031C240FA002200831
:10197C001F041E041D04031DC42CC52CF12C30089F
:10198C00031DC92CCA2CF12C0030A00000309F0084
:10199C0000309E0000309D006D2D0130A50003101D
:1019AC009D0D9E0D9F0DA00DA50BD52CB01FDF2CF2
:1019BC00E02CE12C1D14301CE42CE52CE82C031439
:1019CC00B00DEA2C0310B00D2F080319EE2CEF2CE0
:1019DC00F12C0130AF029F1FF42CF52CD32CAE014F
:1019EC00B01FF92CFA2C082D30087F390319FF2C65
:1019FC00002D032DAE01AE0A082D1D1C062D072D42
:101A0C00082D002D2E0803190C2D0D2D412D013004
:101A1C009D070030031801309E0700300318013079
:101A2C009F07003003180130A007201C1E2D1F2D0E
:101A3C00412D1D08A5001E08A6001F08A7002008A0
:101A4C00A8000130A900280DA80CA70CA60CA50C09
:101A5C00A90B292D2808A00027089F0026089E0006
:101A6C0025089D002F0A03193C2D3D2D412D0130D9
:101A7C00A5002508AF072F0A0319452D462D4B2D20
:101A8C002F08031D4A2D4B2D592D0030A00000307E
:101A9C009F0000309E0000309D002F08031D572D25
:101AAC00582D592DAD012F1C5C2D5D2D5F2D9F17D1
:101ABC00632D7F30A50025089F052F08A500031076
:101ACC00250CA000AD1F6B2D6C2D6D2DA0170800E3
:101ADC008316031358088039831603179400831652
:101AEC0003135808D9005907831603179B00831654
:101AFC000313D71F822D832D862D831603171B14DA
:101B0C00831603171B0803198C2D8D2DA02D1B0A72
:101B1C00031D912D922D9C2D003083160313D8009C
:101B2C000030D7000030D6000030D5000313D71793
:101B3C00D801AA2D003083160313D8000030D7002B
:101B4C000030D6000030D50054088039D90059082F
:101B5C00831603179406831603135408D9005907E8
:101B6C00831603179C0083160313D31FBE2DBF2DA2
:101B7C00C22D831603171C14831603171C08031994
:101B8C00C82DC92DDC2D1C0A031DCD2DCE2DD82D15
:101B9C00003083160313D4000030D3000030D20081
:101BAC000030D1000313D317D401E62D0030831677
:101BBC000313D4000030D3000030D2000030D10029
:101BCC005408530452045104031DED2DEE2D0B2E1D
:101BDC000030D8000030D7000030D6000030D500DF
:101BEC008030D7047F30D80483160317140883166B
:101BFC000313D9005908D8045808D4005708D30047
:101C0C005608D2005508D100FF2F831603171B0866
:101C1C00031D112E122E1D2E003083160313D4001B
:101C2C000030D3000030D2000030D100FF2F1B0851
:101C3C0083160313D900DA015A08DC008316031744
:101C4C001C08831603135902DB00031CDC035B081E
:101C5C007F3E831603179500831603135C08031845
:101C6C00013E003E83160317960083160313580893
:101C7C008316031793008316031357088316031751
:101C8C0092008316031356088316031791008316CC
:101C9C0003135508831603179000003083160313A3
:101CAC00D8000030D7000030D6000030D50000300E
:101CBC00831603179A00003099000030980000300A
:101CCC0097009C01EF2E1C0803196D2E6E2E9D2E75
:101CDC00013083160313D900031083160317900DDC
:101CEC00910D920D930D83160313D90B722E0130A7
:101CFC00D9000310D50DD60DD70DD80DD90B7F2ECD
:101D0C00831603179A1F8B2E8C2E8F2E831603137C
:101D1C00551401300313D900031083160317970DC4
:101D2C00980D990D9A0D83160313D90B922E03134C
:101D3C005408831603171302031DBA2E83160313BC
:101D4C005308831603171202031DBA2E83160313AE
:101D5C005208831603171102031DBA2E83160313A0
:101D6C005108831603171002031CBD2EBE2EE72E3E
:101D7C001A17831603135108831603179002831640
:101D8C0003135208031C520FCC2ECF2E83160317AD
:101D9C009102831603135308031C530FD62ED92E0E
:101DAC00831603179202831603135408031C540F53
:101DBC00E02EE32E83160317930283160313831668
:101DCC000317013083160313D90059088316031720
:101DDC009C071A301C02031CF42EF52E692E1308D6
:101DEC001204110410040319FC2EFD2E272F1714B6
:101DFC00272F0130D9000310D50DD60DD70DD80DD6
:101E0C00D90B012F831603179A1F0D2F0E2F112F8D
:101E1C0083160313551401300313D90003108316D2
:101E2C000317970D980D990D9A0D83160313D90B63
:101E3C00142FFF308316031795070318960AFF30EB
:101E4C00960783160313D71F2C2F2D2FFF2E8316C7
:101E5C0003179C019A1F332F342F602FFF30170567
:101E6C0083160313D900FF30831603171805831646
:101E7C000313DA00FF3083160317190583160313B7
:101E8C00DB007F30831603171A0583160313DC005F
:101E9C005C085B045A0459040319552F562F5B2F09
:101EAC00831603179C019C0A602F551C5E2F5F2F15
:101EBC00602F562F831603171C080319662F672FE4
:101ECC009C2F013083160313D50700300318013003
:101EDC00D607003003180130D70700300318013043
:101EEC00D807581C7A2F7B2F9C2F5508D9005608E1
:101EFC00DA005708DB005808DC000130DD005C0D0F
:101F0C00DC0CDB0CDA0CD90CDD0B852F5C08D80053
:101F1C005B08D7005A08D6005908D5000130831643
:101F2C00031795070318960A0030960783160317B4
:101F3C001608803AFF0080307F02031DA72FFF3068
:101F4C001502031CAA2FAB2FBB2FFF3083160317D0
:101F5C00950000309600003083160313D800003033
:101F6C00D7000030D6000030D500831603171608B2
:101F7C00803AFF0080307F02031DC62F013015020E
:101F8C000318C92FCA2FDB2F83160317950196014F
:101F9C00003083160313D8000030D7000030D60071
:101FAC000030D50083160317940183160317150808
:101FBC009B001B1CE22FE32FE72F83160313D7176D
:101FCC00ED2F7F3083160313D9005908D7058316DC
:101FDC0003171B0883160313D9000310590CD800E0
:101FEC0083160317140883160313D9005908D80451
:041FFC00022E0800A9
:1024C000F401F501701C652A662A6C2A7208F4076B
:1024D0000318F50A7308F50701300310F20DF30D28
:1024E000FF3E031D6D2A01300310F10CF00CFF3E7E
:1024F000031D742A70087104031D7F2A802A622A32
:102500007508F1007408F0000800F800F401F50106
:102510007008F200F3017208F6007308F700781CE7
:10252000922A932A992A7608F4070318F50A77085D
:10253000F50701300310F60DF70DFF3E031D9A2A33
:102540000310F80C7808031DA62AA72A8F2A7508FD
:10255000F1007408F000080083160313B600B201FE
:10256000B3012E08B000B1013008B4003108B50045
:10257000361CBB2ABC2AC22A3408B2070318B30A85
:102580003508B30701300310B40DB50DFF3E031D30
:10259000C32A0310B60C3608031DCF2AD02AB82A46
:1025A0003308AF003208AE00080083120313260878
:1025B0002802F6002708031C270A2902F70026082C
:1025C0002402F0002708031C270A2502F1002A082C
:1025D0002C02F2002B08031C2B0A2D02F3000A1612
:1025E0008A1160220A168A117108F9007008F80031
:1025F0000A168A110C230A168A11831203132A0859
:102600007607FB002B0803182B0A7707FC007C08D1
:10261000A5007B08A400080083120313A101F71F83
:10262000122B132B1A2BF609F709F60A0319F70ACE
:10263000A101A10AF91F1D2B1E2B272BF809F9094F
:10264000F80A0319F90A0130FA007A08A106A20172
:10265000A3017608770403192E2B2F2B662BA001DC
:10266000A00A3D2B01300310F60DF70DFF3E031DB0
:10267000332B0130FA007A08A007F71F402B412BBB
:10268000322B01300310A20DA30DFF3E031D422B80
:1026900077087902031D4E2B76087802031C512B14
:1026A000522B592B7608F8027708031CF903F9021C
:1026B000221401300310F70CF60CFF3E031D5A2BB9
:1026C0000130A002031D652B662B412B2108031945
:1026D0006A2B6B2B702BA209A309A20A0319A30A68
:1026E0002308F7002208F60008000A128A119F2723
:1026F0000A168A11831203131F0C83160317C000D6
:10270000400C0F39003A031D862B872B962BF9308E
:1027100083160317C0008C2BC00B8B2B8F2B8312BF
:1027200003131F08C33904389F00CB2B83120313F4
:102730001F0C83160317C000400C0F39013A031D0C
:10274000A22BA32BB22BF93083160317C000A82BA2
:10275000C00BA72BAB2B831203131F08C3390838F8
:102760009F00CB2B831203131F0C83160317C0008B
:10277000400C0F39023A031DBE2BBF2BCB2BF93077
:1027800083160317C000C42BC00BC32BC72BC33049
:10279000831203139F05831203139F18D02BD12B91
:1027A0007A2BF93083160317C000D62BC00BD52B1C
:1027B000D92B831203139F147A2B0A128A11102823
:1027C000031083120313650D660DEC006C08031DE6
:1027D000EA2BEB2BF42B0030E6000030E500003054
:1027E000E4000030E300572C6308E7006408E800C9
:1027F0006508E9006608EA001F300310EA0CE90CDE
:10280000E80CE70CFF3E031DFD2B6708EB00E51706
:10281000FF30E305FF30E405FF30E5050030E60555
:102820009630EC02EC1F152C162C302C6C08803ADC
:10283000973E03181C2C1D2C1E2CEB2B0130031073
:10284000E60CE50CE40CE30CFF3E031D1F2C0130ED
:10285000E7006708EC07031D2E2C2F2C1E2C472C9D
:1028600020306C02031C352C362C422CEB2B013013
:10287000E7000310E30DE40DE50DE60DE70B392C41
:102880000130EC026C08031D462C472C372C6B08DA
:1028900003194B2C4C2C572CE309E409E509E609F4
:1028A000E30A0319E40A0319E50A0319E60A080012
:1028B000031083160317330D340DBA003A08031DB5
:1028C000622C632C6C2C0030B4000030B30000305C
:1028D000B2000030B100CF2C3108B5003208B6008C
:1028E0003308B7003408B8001F300310B80CB70C19
:1028F000B60CB50CFF3E031D752C3508B900B31797
:10290000FF30B105FF30B205FF30B3050030B4052C
:102910009630BA02BA1F8D2C8E2CA82C3A08803A19
:10292000973E0318942C952C962C632C01300310A1
:10293000B40CB30CB20CB10CFF3E031D972C01304C
:10294000B5003508BA07031DA62CA72C962CBF2C62
:1029500020303A02031CAD2CAE2CBA2C632C013073
:10296000B5000310B10DB20DB30DB40DB50BB12C04
:102970000130BA023A08031DBE2CBF2CAF2C390817
:102980000319C32CC42CCF2CB109B209B309B40963
:10299000B10A0319B20A0319B30A0319B40A0800E9
:1029A00083160313A400230883120313A7008316BE
:1029B0000313220883120313A600831603132108AE
:1029C00083120313A5008316031320088312031335
:1029D000A4004130A3009030A2000030A1000030DC
:1029E000A0000A128A1166230A168A1183120313A1
:1029F0002308BC002208BB002108BA002008B90047
:102A00004330B800FA30B7000030B6000030B500EF
:102A10000A168A112D260A168A1183120313380802
:102A2000D6003708D5003608D4003508D30040302A
:102A3000D200E030D1000030D0000030CF000A12C8
:102A40008A15BE200A168A11831203135208E60063
:102A50005108E5005008E4004F08E3000A168A1107
:102A6000E0230A168A1183120313640883160313E2
:102A7000A60083120313630883160313A50024031F
:102A8000031D432D442D562D250883120313950055
:102A9000831603132508033983120313ED00ED0E8B
:102AA00017086D06CF396D0697007B2D023024067E
:102AB000031D5B2D5C2D7B2D2508831203139B00CA
:102AC000831603132508013983120313ED00ED0E5D
:102AD0001D086D06EF396D069D008316031325084A
:102AE000023983120313ED00ED0EED0D1D086D0686
:102AF000DF396D069D00080083160317BF003E08EE
:102B000083160313BE00831603173D0883160313B1
:102B1000BD00831603173C0883160313BC008316FD
:102B200003173B0883160313BB004830BA00F43088
:102B3000B9002430B8000030B7000A128A112120F1
:102B40000A168A11831603133A08D8003908D700E9
:102B50003808D6003708D5004230D4008030D30082
:102B60000030D2000030D1000A128A156E250A16F4
:102B70008A1183160313540883160317A4008316BF
:102B80000313530883160317A30083160313520875
:102B900083160317A2008316031351088316031725
:102BA000A100BF30A00080309F0000309E000030A8
:102BB0009D000A128A1516230A168A118316031716
:102BC0002008B4001F08B3001E08B2001D08B100A1
:102BD0000A168A1158240A168A1183160317310817
:102BE000831603139200831203138C100330920494
:102BF00012158C1CFC2DFD2DF92D8C10831603173E
:102C00003F03031D042E052E172E8316031387146E
:102C10008312031397013F3097051708F0390C38DA
:102C20009700971217128316031387102C2E023069
:102C30003F06031D1C2E1D2E2C2E83160313071575
:102C4000831203139D011D08F0390C389D009D125D
:102C50001D128316031307110800831203133C0887
:102C60008039C6003C08BD003D07CD00BB1F392E92
:102C70003A2E3B2E4D144D0803193F2E402E502E58
:102C80004D0A031D442E452E4D2E0030BC00003051
:102C9000BB000030BA000030B900BB17BC01582E91
:102CA0000030BC000030BB000030BA000030B9007A
:102CB00038088039BD003D08C6063808BD003D070C
:102CC000CE00B71F642E652E662E4E144E080319D3
:102CD0006A2E6B2E7B2E4E0A031D6F2E702E782EC1
:102CE0000030B8000030B7000030B6000030B5004A
:102CF000B717B801832E0030B8000030B70000309D
:102D0000B6000030B5003808370436043504031D1A
:102D10008A2E8B2EA42E0030BC000030BB00003069
:102D2000BA000030B9008030BB047F30BC044608D4
:102D3000BD003D08BC043C08B8003B08B7003A0899
:102D4000B6003908B500FF2F4D08031DA82EA92E87
:102D5000B22E0030B8000030B7000030B6000030AE
:102D6000B500FF2F4D08BD00BE013E08C0004E0853
:102D70003D02BF00031CC0033F087F3EC700400860
:102D80000318013E003EC8003C08C5003B08C400D3
:102D90003A08C3003908C2000030BC000030BB0054
:102DA0000030BA000030B9000030CC000030CB0059
:102DB0000030CA000030C900CE01282F4E08031988
:102DC000E22EE32E032F0130BD000310C20DC30D10
:102DD000C40DC50DBD0BE52E0130BD000310B90DAE
:102DE000BA0DBB0DBC0DBD0BEE2ECC1FF82EF92E6F
:102DF000FA2E39140130BD000310C90DCA0DCB0DD8
:102E0000CC0DBD0BFC2E38084502031D112F3708D1
:102E10004402031D112F36084302031D112F3508EC
:102E20004202031C142F152F242F4C173508C20201
:102E30003608031C360FC3023708031C370FC402C1
:102E40003808031C380FC5020130BD003D08CE070D
:102E50001A304E02031C2D2F2E2FDE2E450844045F
:102E6000430442040319352F362F552F4914552F8B
:102E70000130BD000310B90DBA0DBB0DBC0DBD0B6B
:102E80003A2FCC1F442F452F462F39140130BD0057
:102E90000310C90DCA0DCB0DCC0DBD0B482FFF3053
:102EA000C7070318C80AFF30C807BB1F582F592F80
:102EB000382FCE01CC1F5D2F5E2F7A2FFF304905B2
:102EC000BD00FF304A05BE00FF304B05BF007F301C
:102ED0004C05C00040083F043E043D040319712F17
:102EE000722F752FCE01CE0A7A2F391C782F792FA9
:102EF0007A2F722F4E0803197E2F7F2FB02F0130AB
:102F0000B907003003180130BA0700300318013048
:102F1000BB07003003180130BC073C1C902F912FD9
:102F2000B02F3908BD003A08BE003B08BF003C087E
:102F3000C0000130C100400DC00CBF0CBE0CBD0C68
:102F4000C10B9B2F4008BC003F08BB003E08BA00E5
:102F50003D08B9000130C7070318C80A0030C80788
:102F60004808803AFF0080307F02031DB92FFF30F0
:102F70004702031CBC2FBD2FCB2FFF30831203133E
:102F8000C7000030C8000030BC000030BB0000307B
:102F9000BA000030B900831203134808803AFF00DA
:102FA00080307F02031DD62F013047020318D92F2E
:102FB000DA2FE72F83120313C701C8010030BC00CA
:102FC0000030BB000030BA000030B900C6018312E7
:102FD00003134708CD004D1CEE2FEF2FF12FBB1729
:102FE000F52F7F30BD003D08BB054D08BD00031027
:102FF0003D0CBC004608BD003D08BC049B2E0800EB
:08400000FF3FFF3FFF3FFF3FC0
:04400E00D420FF3F7C
:00000001FF
