:060000000A128A110E280D
:10000800FE00030E83120313B0000A08B1000A129F
:100018008A111D280A128A11112883120313B301A9
:10002800B401B501B601B701B80183010A128A11FA
:10003800A6290B1D20282128482814303506360407
:10004800031D272828282A28B501B6013408803A34
:10005800AE003608803A2E02031D342835083302D4
:10006800031C372838283C288312031387153F2898
:100078008312031387110130B5070318B60A00303D
:10008800B607E13081000B110C1F4B284C28D528EE
:100098001F0CAE002E0C0F39003A031D54285528AA
:1000A80079281E08AE00AF012E08A4002F08A5006D
:1000B8000030A600A700F430A8000130A9000730DE
:1000C800AA000030AB001930AC000030AD000A12B5
:1000D8008A1105220A128A11831203132508B8000F
:1000E8002408B70037089500D4281F0CAE002E0C42
:1000F8000F39013A031D81288228A6281E08AE0060
:10010800AF012E08A4002F08A5000030A600A70004
:10011800F430A8000130A9000730AA000030AB0075
:100128001930AC000030AD000A128A1105220A12FB
:100138008A11831203132508B8002408B70037086A
:100148009B00D4281F0CAE002E0C0F39023A031D59
:10015800AE28AF28D4281E08AE00AF012E08A40090
:100168002F08A5000030A600A700F430A800013031
:10017800A9000130AA000030AB001430AC000030F8
:10018800AD000A128A1105220A128A11831203137A
:100198002508B8002408B7003808B4003708B300A9
:1001A8000C1331088A00300E8300FE0E7E0E090003
:1001B80083120313A101F71FE228E328EA28F609AE
:1001C800F709F60A0319F70AA101A10AF91FED2890
:1001D800EE28F728F809F909F80A0319F90A01308D
:1001E800FA007A08A106A201A30176087704031988
:1001F800FE28FF283629A001A00A0D290130031086
:10020800F60DF70DFF3E031D03290130FA007A08A9
:10021800A007F71F10291129022901300310A20D88
:10022800A30DFF3E031D122977087902031D1E291D
:1002380076087802031C2129222929297608F80240
:100248007708031CF903F902221401300310F70C94
:10025800F60CFF3E031D2A290130A002031D352993
:1002680036291129210803193A293B294029A209CD
:10027800A309A20A0319A30A2308F7002208F60013
:100288000800073083160317880089010730831692
:1002980003138500870186018312031385018601F4
:1002A8008701831603130F138F160F160F1481126D
:1002B80081110108F83901388100E13083120313F4
:1002C8008100831603139F131F129F1283120313B7
:1002D8001F083F3980389F00C3309F051F147429B9
:1002E80075297629831203130C13831603130C172D
:1002F8000B118B160B178B17071587149B30920061
:100308003F308312031397051708F0390C3897000C
:100318001D08F0390C389D000F3095000F309B00F8
:10032800971217129D121D128C1003309204121589
:100338008C1C9F29A0299C298C1083160313071154
:10034800871008000A128A1145210A128A1183129D
:1003580003131F0CB200320C0F39003A031DB529E4
:10036800B629C529F93083120313B200BB29B20B91
:10037800BA29BE29831203131F08C33904389F0002
:10038800F2291F0CB200320C0F39013A031DCD2996
:10039800CE29DD29F93083120313B200D329B20B19
:1003A800D229D629831203131F08C33908389F009E
:1003B800F2291F0CB200320C0F39023A031DE5294D
:1003C800E629F229F93083120313B200EB29B20BA4
:1003D800EA29EE29C330831203139F059F18F529D4
:1003E800F629AB29F93083120313B200FB29B20BAB
:1003F800FA29FE29831203139F14AB290A128A11C2
:100408000E288312031326082802F6002708031C67
:10041800270A2902F70026082402F0002708031CEF
:10042800270A2502F1002A082C02F2002B08031CD7
:100438002B0A2D02F3000A128A113C220A128A1191
:100448007108F9007008F8000A128A11DC200A12F3
:100458008A11831203132A087607FB002B08031856
:100468002B0A7707FC007C08A5007B08A40008007D
:10047800F401F501701C412A422A482A7208F4073F
:100488000318F50A7308F50701300310F20DF30D90
:10049800FF3E031D492A01300310F10CF00CFF3E0A
:1004A800031D502A70087104031D5B2A5C2A3E2A2A
:0A04B8007508F1007408F000080058
:08400000FF3FFF3FFF3FFF3FC0
:04400E00D420FF3F7C
:00000001FF
