:060000000A128A11FC291E
:10000800F000030EF1000B1912200B18A8200C1891
:100018001F20710E8300F00E700E09002D08003CA1
:10002800031958282D08013C03196E282D08023C95
:10003800031999280800FC308F0018308E000C1026
:10004800031383122A08133C031988152A08123C43
:10005800031988110814881408152908013C031984
:100068003E282908023C031947282908033C03199C
:100078004C280800A90A2A08123C031CA4132408C7
:10008800870008115128A90A2508870088105128D7
:10009800A90A26088700081051282908043C0319D2
:1000A800A9010319A90A0800031383122E080E21B7
:1000B80081000B11AB0A2B08403C0319AB012B083C
:1000C8001F3C031868286B28003085000800FF30A3
:1000D80085000800031383122E080E2181000B11DE
:1000E800AB0A2B08403C0319AB012B08003C031951
:1000F80086282B08203C03198A282B081F3C031844
:100108008F289428AC012C08850008000730AC071C
:100118002C08850008000830AC072C08850008006A
:100128000830AC022C0885000800031383122E083F
:100138000E2181000B11AB0A2B08403C0319AB01BF
:100148002B0840218500080003138312861EB1285E
:10015800061FB928861FC52808000B10AB01AD0A79
:100168002D08033C0319AD0108000B10AA0AAE0ABA
:100178002A08163C0319AA032E08163C0319AE03D5
:1001880008000B10AA03AE032A08FF3C0319AA0AA9
:0A0198002E08FF3C0319AE0A080010
:100200008A010A140F398207C034F934A434B03497
:10021000993492348234F834803490348A010A1448
:100220008207F434FA34FC34FD34FB34FC34F33408
:10023000F534F634F734F834F234F434A434AA3410
:10024000D834BE34ED34C834D234E634F0348A01C4
:100250000A1482070A3414341E34283432343C34ED
:10026000463450345A3464346E34783482348C34A6
:100270009634A034AA34B434D2341A342334323409
:100280008A010A14820780348C349834A534B0343F
:10029000BC34C634D034DA34E234EA34F034F534E1
:1002A000FA34FD34FE34FF34FE34FD34FA34F534D0
:1002B000F034EA34E234DA34D034C634BC34B03406
:1002C000A53498348C348034733467345A344F34C2
:1002D000433439342F3425341D3415340F340A3463
:1002E00005340234013400340134023405340A3454
:1002F0000F3415341D3425342F34393443344F34FE
:100300005A34673473348A010A1482079C299C2961
:100310009C299C29A829A829C029C029C029C0290D
:10032000C029CC29CC29F029F029E429F029D829A1
:10033000F029F029F029F0290313831601158114FF
:100340000114031383122E080E2181000B110800E3
:1003500003138316011581140110031383122E0851
:100360000E2181000B110800031383160115811063
:100370000114031383122E080E2181000B110800B3
:1003800003138316011581100110031383122E0825
:100390000E2181000B110800031383160111811433
:1003A0000114031383122E080E2181000B11080083
:1003B00003138316011181140110031383122E08F5
:1003C0000E2181000B110800031383160111811007
:1003D0000114031383122E080E2181000B11080053
:1003E00003138316011181100110031383122E08C9
:1003F0000E2181000B1108003B2255225C226A224B
:10040000782285220030AB00AC00AD00AA00AE001F
:100410000130A900031383122A082721A00000300D
:10042000A100A200A30018222F222E0883210C2A4B
:100430006430A0020318A10A0318182A6430A00728
:100440000A30A0020318A20A0318202A0A30A007C3
:100450000130A0020318A30A0318282A0800210863
:100460000021A40022080021A50023080021A600E5
:100470004030A70008000317831688018901031381
:1004800083168501870108108810081188118616C7
:1004900006178617811395161517951703138312E0
:1004A00085018601870188010800031383160F1751
:1004B0008F160F160F140800031383168112811173
:1004C000011181140110031383122E080E218100E3
:1004D0000B110800031383121013901610169011BD
:1004E00090101014FC308F0018308E000C10080093
:1004F000031383128B178B160B118B150B100B1715
:100500000C10031383160C1408000313831696169D
:0E051000161796170313831206080B10080027
:04400E00D420FF3F7C
:00000001FF
