:060000000A128A11142906
:10000800F000030EF1000B1910200B184420710E9C
:100018008300F00E700E09002108003C0319192016
:100028002108013C03195420080003138312F030FF
:1000380081000B110814881408152D08013C0319B8
:100048002E282D08023C031933282D08033C0319D8
:1000580038280800AD0A2808870008113D28AD0A8D
:100068002908870088103D28AD0A2A08870008104B
:100078003D282D08043C0319AD010319AD0A0800F9
:1000880003138312061CA10A2108023C0319A101CB
:1000980021088900061F850A861F85030B100800A2
:1000A80003138312F03081000B1188012218612894
:1000B8002B0887008814081565282C088700081461
:0800C80008150130A206080032
:100200008A010A140F398207C034F934A434B03497
:10021000993492348234F83480349034883483347E
:10022000C634A13486348E34592174217B2188212F
:100230008E210030A1000130AD00031383120508A8
:10024000A0000030A500A600A7002B210508A000F3
:10025000422149211F296430A0020318A50A03186E
:100260002B296430A0070A30A0020318A60A03183D
:1002700033290A30A0070130A0020318A70A031887
:100280003B29080020080F39A300200E0F39A400D5
:10029000080025080021A80026080021A900270839
:1002A0000021AA0023080021AB0024080021AC0093
:1002B000080003178316880189010313831685013B
:1002C000870189010810881008110614061786177F
:1002D00081131514151795170313831285018601D1
:1002E0008701880189010800031383160F178F16F1
:1002F0000F120F14080003138316811281110115C8
:100300008114011403138312F03081000B110800D3
:100310008B178B160B118B150B100800031383160C
:100320001614161796170313831206080B100800ED
:04400E00D420FF3F7C
:00000001FF
