:060000000A128A110C280F
:10000800FE00030EFA000A08FB000A128A115D2896
:100018000A128A110F280A128A11A6200A128A11B6
:10002800FD00A001A101A201F001F101F201F3011B
:10003800F401F501F601F701F80183010A128A11AA
:100048007F28831603178801890183160313850106
:100058000330860088018312031385018601880115
:10006800831603130F088F3940388F000F141812A6
:10007800181583160317871519308316031399006B
:100088009A0183120313981718131816831603136B
:100098009816831203138C12831603138C160B17EE
:1000A8008B178113151495148B150B1016149614B1
:1000B8000800831203138C1E6228632865281A0817
:1000C80088000B1C68286928782806186C286D2871
:1000D80071280130F9007908F807861874287528FE
:1000E80077280130F8020B107B088A007A0E83000B
:1000F800FE0E7E0E09000A128A1125200A128A11A4
:10010800780883120313850078087D0603198D2863
:100118008E28842878080A128A119A200A128A11CD
:100128007808FD0084280A128A110C28FC007C0833
:1001380083120313990083160313981CA428A52877
:060148009F280800FF34AF
:08400000FF3FFF3FFF3FFF3FC0
:04400E00D420FF3F7C
:00000001FF
