:060000000A128A110C280F
:10000800FE00030EF0000A08F1000A128A11A12866
:100018000A128A110F28F601F701F801F901830184
:100028000A128A1117280A128A1161200A128A11E3
:10003800831203131F08C33908389F009F18252807
:10004800262832280430F5003D30F400F40B2A2825
:10005800F50B2A282F28831203139F1404300A1241
:100068008A11D8200A128A1183120313880086186D
:100078003E283F2843280B10023089006300831272
:1000880003130619482849284B28F801F80A061DC1
:100098004E284F281C287803031D532854281C2851
:1000A8000430F20079080A128A11C4200A128A114F
:1000B800F8011C280A128A110C2804308316031729
:1000C80088008901043083160313850007308600F1
:1000D800870188018901831203138501860187013D
:1000E80088018901831603130F088F3940388F0060
:1000F8000F149F131F129F12831203131F083F39F7
:1001080080389F001F08C33908389F000330F20069
:10011800F20B8C288F28831203131F140C138316D9
:1001280003130C170B178B1781131514951415153A
:100138008B150B101614161508000B1CA428A528DF
:10014800B228831203130618AA28AB28AF2806087A
:10015800860001308900033089000B1083120313D5
:100168000C1FB728B828BD281E08F9007908870091
:100178000C1371088A00700E8300FE0E7E0E0900B3
:10018800F3007208831203178D0073088C0083161E
:1001980003178C130C158B1355308D00AA308D0066
:1001A8008C148B170C110800F200720883120317C5
:1001B8008D00831603178C130C14831203170C0875
:0201C80008002D
:08400000FF3FFF3FFF3FFF3FC0
:04400E00D420FF3F7C
:00000001FF
