:060000000A128A1100291A
:100200002A2115213121031383120B1D05293C21BD
:10021000850A05080A3C03195F21061B5321861B2A
:1002200059210608402187000529031783168801F4
:1002300089010313831685018701880186018901DD
:10024000061786170313831285018701860188012B
:1002500089010800031383160F138F160F120F1452
:1002600008000313831681128111011581140114F2
:10027000031383123C210800E83081000B110800B1
:100280008A010A148207C034F934A434B034993492
:1002900092348234F8348034903488348334C634D1
:1002A000A13486348E34061B5329860A061A860129
:1002B0000800861B59298603061A86010800850155
:1002C000880A081A880108084021070203196921D1
:0C02D00008008801890A891889010800CB
:04400E00D420FF3F7C
:00000001FF
