:060000000A128A110E280D
:10000800FE00030E83120313CC000A08CD000A1267
:100018008A111E280A128A1111288313203084009D
:100028003C300A128A1117270A128A1183010A1210
:100038008A11F72C0B1D21282228A12808308100BD
:10004800831603130108F8390538810081118312DA
:1000580003133B08031D3128322854280814370895
:10006800C9003608C8000310C90CC80C0310C90C15
:10007800C80C0310C90CC80C4808283EF0004908F1
:100088000318013E003EF1000A128A1108270A12DD
:100098008A118312031308100130C8004808BB07EF
:1000A8003B03031D582859287B2888143508C900A4
:1000B8003408C8000310C90CC80C0310C90CC80CBC
:1000C8000310C90CC80C4808283EF000490803185A
:1000D800013E003EF1000A128A1108270A128A110D
:1000E8008312031388100130C8004808BB07023088
:1000F8003B06031D80288128A02808153308C9005D
:100108003208C8000310C90CC80C0310C90CC80C6D
:100118000310C90CC80C4808283EF0004908031809
:10012800013E003EF1000A128A1108270A128A11BC
:10013800831203130811BB010B110C1FA428A52857
:100148004B29051BA828A9284A29851BAC28AD28B6
:100158004A291F19B028B128D4289F19B428B528CE
:10016800D4281E08C800C9014808F0004908F10051
:10017800831603131E0883120313CA00CB014A080F
:10018800F2004B08F3000A128A11D2260A128A11C9
:10019800710883120313B9007008B8001F154A29A3
:1001A8001F1DD728D828FC289F19DB28DC28FC2805
:1001B8001E08C800C9014808F0004908F100831664
:1001C80003131E0883120313CA00CB014A08F20066
:1001D8004B08F3000A128A11D2260A128A117108F2
:1001E80083120313B7007008B6001F119F154A2920
:1001F8001F19FF28002922299F1D032904292229C4
:100208001E08C800C9014808F0004908F100831613
:1002180003131E0883120313CA00CB014A08F20015
:100228004B08F3000A128A11D2260A128A117108A1
:1002380083120313B5007008B400D2281F1D2529A6
:1002480026294A299F1D29292A294A291E08C80022
:10025800C9014808F0004908F100831603131E0875
:1002680083120313CA00CB014A08F2004B08F300BB
:100278000A128A11D2260A128A11710883120313EC
:10028800B3007008B2001F119F114A290C138C1E6D
:100298004E294F29B22C1A089900051B54295529B3
:1002A800012B851F58295929012B78301A06031D5F
:1002B8005E295F298E290130AE070318AF0A003086
:1002C800AF0713302E062F04031D6B296C297029E4
:1002D8001230AE000030AF002F08BD002E08BC0061
:1002E8000030BE00BF001230C0000030C100E63050
:1002F800C2000030C3002030C4000330C5000A1219
:100308008A1150260A128A11831203133D08B70076
:100318003C08B6006F301A06031D93299429C32997
:100328000130AE020030031CAF03AF0201302F02D0
:10033800003003192E02031CA229A329A529AE0106
:10034800AF012F08BD002E08BC000030BE00BF0062
:100358001230C0000030C100E630C2000030C300D7
:100368002030C4000330C5000A128A1150260A1230
:100378008A11831203133D08B7003C08B6006130A8
:100388001A06031DC829C929F8290130B00703181E
:10039800B10A0030B107133030063104031DD529E6
:1003A800D629DA291230B0000030B1003108BD007A
:1003B8003008BC000030BE00BF001230C000003062
:1003C800C100E630C2000030C3002030C400033052
:1003D800C5000A128A1150260A128A1183120313C1
:1003E8003D08B9003C08B80073301A06031DFD2902
:1003F800FE292D2A0130B0020030031CB103B102DE
:1004080001303102003003193002031C0C2A0D2A76
:100418000F2AB001B1013108BD003008BC0000301E
:10042800BE00BF001230C0000030C100E630C2007C
:100438000030C3002030C4000330C5000A128A11FE
:1004480050260A128A11831203133D08B9003C088A
:10045800B80071301A06031D322A332A622A013085
:10046800AC070318AD0A0030AD0713302C062D0475
:10047800031D3F2A402A442A1230AC000030AD0048
:100488002D08BD002C08BC000030BE00BF00123093
:10049800C0000030C100E630C2000030C300203088
:1004A800C4000330C5000A128A1150260A128A11A4
:1004B800831203133D08B5003C08B40077301A06D0
:1004C800031D672A682A972A0130AC020030031CF2
:1004D800AD03AD0201302D02003003192C02031CBC
:1004E800762A772A792AAC01AD012D08BD002C089F
:1004F800BC000030BE00BF001230C0000030C10098
:10050800E630C2000030C3002030C4000330C5000C
:100518000A128A1150260A128A11831203133D08FF
:10052800B5003C08B40064301A06031D9C2A9D2AB5
:10053800CC2A0130AA070318AB0A0030AB071330E6
:100548002A062B04031DA92AAA2AAE2A1230AA00B9
:100558000030AB002B08BD002A08BC000030BE00EC
:10056800BF001230C0000030C100E630C2000030C9
:10057800C3002030C4000330C5000A128A11502677
:100588000A128A11831203133D08B3003C08B20013
:1005980066301A06031DD12AD22A012B0130AA027D
:1005A8000030031CAB03AB0201302B0200300319EF
:1005B8002A02031CE02AE12AE32AAA01AB012B083C
:1005C800BD002A08BC000030BE00BF001230C000C9
:1005D8000030C100E630C2000030C3002030C40043
:1005E8000330C5000A128A1150260A128A11831292
:1005F80003133D08B3003C08B200051F042B052B6C
:10060800B12C851B082B092BB12C74301A06031D3D
:100618000E2B0F2B3E2B0130AE070318AF0A00300C
:10062800AF0713302E062F04031D1B2B1C2B202B6A
:100638001230AE000030AF002F08BD002E08BC00FD
:100648000030BE00BF001230C0000030C100E630EC
:10065800C2000030C3002030C4000330C5000A12B5
:100668008A1150260A128A11831203133D08B70013
:100678003C08B60079301A06031D432B442B732B14
:100688000130AE020030031CAF03AF0201302F026D
:10069800003003192E02031C522B532B552BAE018D
:1006A800AF012F08BD002E08BC000030BE00BF00FF
:1006B8001230C0000030C100E630C2000030C30074
:1006C8002030C4000330C5000A128A1150260A12CD
:1006D8008A11831203133D08B7003C08B6007A302C
:1006E8001A06031D782B792BA82B0130B0070318A5
:1006F800B10A0030B107133030063104031D852BD1
:10070800862B8A2B1230B0000030B1003108BD00B2
:100718003008BC000030BE00BF001230C0000030FE
:10072800C100E630C2000030C3002030C4000330EE
:10073800C5000A128A1150260A128A11831203135D
:100748003D08B9003C08B80075301A06031DAD2BEA
:10075800AE2BDD2B0130B0020030031CB103B10217
:1007680001303102003003193002031CBC2BBD2BB1
:10077800BF2BB001B1013108BD003008BC0000300A
:10078800BE00BF001230C0000030C100E630C20019
:100798000030C3002030C4000330C5000A128A119B
:1007A80050260A128A11831203133D08B9003C0827
:1007B800B80070301A06031DE22BE32B122C01300F
:1007C800AC070318AD0A0030AD0713302C062D0412
:1007D800031DEF2BF02BF42B1230AC000030AD00D2
:1007E8002D08BD002C08BC000030BE00BF00123030
:1007F800C0000030C100E630C2000030C300203025
:10080800C4000330C5000A128A1150260A128A1140
:10081800831203133D08B5003C08B40067301A067C
:10082800031D172C182C472C0130AC020030031C78
:10083800AD03AD0201302D02003003192C02031C58
:10084800262C272C292CAC01AD012D08BD002C0825
:10085800BC000030BE00BF001230C0000030C10034
:10086800E630C2000030C3002030C4000330C500A9
:100878000A128A1150260A128A11831203133D089C
:10088800B5003C08B40072301A06031D4C2C4D2CE0
:100898007C2C0130AA070318AB0A0030AB071330D1
:1008A8002A062B04031D592C5A2C5E2C1230AA0040
:1008B8000030AB002B08BD002A08BC000030BE0089
:1008C800BF001230C0000030C100E630C200003066
:1008D800C3002030C4000330C5000A128A11502614
:1008E8000A128A11831203133D08B3003C08B200B0
:1008F8006E301A06031D812C822CB12C0130AA02FD
:100908000030031CAB03AB0201302B02003003198B
:100918002A02031C902C912C932CAA01AB012B08C2
:10092800BD002A08BC000030BE00BF001230C00065
:100938000030C100E630C2000030C3002030C400DF
:100948000330C5000A128A1150260A128A1183122E
:1009580003133D08B3003C08B2008C120B1CB52CE5
:10096800B62CF02C0618B92CBA2CEF2C0130A007A5
:100978000318A10A0030A107043020062104031D32
:10098800C62CC72CC92CA001A10120082104031DD5
:10099800CE2CCF2CD22C05138513EF2C2003210449
:1009A800031DD72CD82CDB2C05138517EF2C023010
:1009B80020062104031DE12CE22CE52C05178513E4
:1009C800EF2C033020062104031DEB2CEC2CEF2C1C
:1009D80005178517EF2C0B104D088A004C0E830065
:1009E800FE0E7E0E09000A128A119B250A128A1130
:1009F800831203138618012D022D042DBA01BA0A99
:100A0800861C072D082D1E2D3A03031D0C2D0D2DB8
:100A18001E2D3908CF003808CE000430D000003031
:100A2800D1000A128A1187260A128A118312031327
:100A3800BA01BA0A0430CE000030CF000A128A1177
:100A4800F2260A128A11831203134F08A9004E08CE
:100A5800A8000530CE000030CF000A128A11F22615
:100A68000A128A11831203134F08A7004E08A60022
:100A78000630CE000030CF000A128A11F2260A1280
:100A88008A11831203134F08A5004E08A4000730EB
:100A9800CE000030CF000A128A11F2260A128A11FB
:100AA800831203134F08A3004E08A200051F5D2DF3
:100AB8005E2D722D851F612D622D722D2908B900BA
:100AC8002808B8002708B7002608B6002508B5008A
:100AD8002408B4002308B3002208B2009F14413050
:100AE80083120313D500ED30D400D40B792DD50B28
:100AF800792D7E2D8312031397123818842D882D93
:100B08008312031317168B2D831203131712390838
:100B1800D5003808D4000310D50CD40C0310D50C1C
:100B2800D40C54089500FC2C0A128A110E280F3098
:100B380083160317880089010F3083160313850075
:100B480003308600803087008801890160308F007B
:100B58009F134130831203139F00083081008316CE
:100B680003130108F83905388100811181120B112E
:100B78000715F9309200831203139715171595017D
:100B88008C100330920012158C1CCB2DCC2DC82D47
:100B980080308316031387008B170B178B160C17DF
:100BA800831203138C12831603138C160F308312CF
:100BB8000313CE00CE0BDE2DE12D8316031318127E
:100BC80018158316031787156730831603139900C2
:100BD8009A01831203139817181318168316031310
:100BE80098168113151495148B150B10161496145A
:100BF800831203138C12831603138C160B178B178F
:100C08008312031385018601870188018901080081
:100C1800FB01FC01760877040319132E142E4B2EC2
:100C2800FD01FD0A222E01300310F60DF70DFF3EDF
:100C3800031D182E0130FA007A08FD07F71F252E2C
:100C4800262E172E01300310FB0DFC0DFF3E031D51
:100C5800272E77087902031D332E76087802031CA5
:100C6800362E372E3E2E7608F8027708031CF90335
:100C7800F9027B1401300310F70CF60CFF3E031D3C
:100C88003F2E0130FD02031D4A2E4B2E262E7C08D6
:100C9800F7007B08F6000800831203133E084002A1
:100CA800F6003F08031C3F0A4102F7003E083C02D9
:100CB800F0003F08031C3F0A3D02F10042084402CD
:100CC800F2004308031C430A4502F3000A128A1182
:100CD800AD260A128A117108F9007008F8000A1284
:100CE8008A110C260A128A11831203134208760706
:100CF800C60043080318430A7707C7004708BD0022
:100D08004608BC0008008312031350088312031717
:100D18008D00831203134E08831203178C00831669
:100D280003178C130C15413083120313D300ED30D5
:100D3800D200D20B9D2ED30B9D2EA22E8B13553095
:100D4800831603178D00AA308D008C148B170C1195
:100D58000800F401F501701CB22EB32EB92E7208EA
:100D6800F4070318F50A7308F50701300310F20DAC
:100D7800F30DFF3E031DBA2E01300310F10CF00CE9
:100D8800FF3E031DC12E70087104031DCC2ECD2E0D
:100D9800AF2E7508F1007408F00008007308F5001C
:100DA8007208F40006300310F50CF40CFF3E031D26
:100DB800D72E7108F7007008F6000310F60DF70D2E
:100DC8000310F60DF70D74087604F800750877041B
:100DD800F9007908F1007808F0000800831203137D
:100DE8004E08831203178D00831603178C130C14F7
:100DF800831203170C0883120313D000D101500883
:100E0800CE005108CF000800102F0130F00200304A
:100E1800031CF103F102000070087104031D152F73
:100E2800162F092F080064008001840A040603199C
:060E380000340406182F2F
:08400000FF3FFF3FFF3FFF3FC0
:04400E00D420FF3F7C
:00000001FF
