:060000000A128A1110280B
:10000800FE00030E83120313CB000A08CC007F08FE
:10001800CD000A128A11DE2E0A128A1113288312C1
:100028000313CE01CF01D001D101D201D301831333
:10003800CC308400E6300A128A11F0270A128A119D
:1000480083010A128A11462D83120313300880395E
:10005800BA003008B5003507C000AF1F342835286E
:1000680036284014400803193A283B284A28400AF1
:10007800031D3F28402848280030B0000030AF005A
:100088000030AE000030AD00AF1752280030B0008D
:100098000030AF000030AE000030AD0034088039C9
:1000A800B5003508BA063408B5003507BF00B31FD8
:1000B8005E285F2860283F143F08031964286528D4
:1000C80074283F0A031D69286A2872280030B40082
:1000D8000030B3000030B2000030B100B3177C2804
:1000E8000030B4000030B3000030B2000030B1007E
:1000F8003F0803198028812886284008031D852881
:1001080086288F280030B0000030AF000030AE00E5
:100118000030AD006C2B2D08F00033080A128A1548
:10012800CD240A128A11710883120313C6007008BD
:10013800C5004508B500B601B701B8013808BE00CA
:100148003708BD003608BC003508BB004608B500B6
:10015800B601B701B8013808C4003708C30036082B
:10016800C2003508C1002E08F00032080A128A15AC
:10017800CD240A128A11710883120313C60070086D
:10018800C5004508B500B601B701B8013508BB0779
:10019800360803110318013E0319D328BC07370892
:1001A80003110318013E0319DA28BD0738080311A3
:1001B8000318013E0319E128BE074608B500B60139
:1001C800B701B8013508C107360803110318013E05
:1001D8000319EF28C207370803110318013E031952
:1001E800F628C307380803110318013E0319FD2830
:1001F800C4072F08F00031080A128A15CD240A1204
:100208008A11710883120313C6007008C5004508D7
:10021800B500B601B701B8013508BB0736080311A8
:100228000318013E03191929BC07370803110318DD
:10023800013E03192029BD07380803110318013EA0
:1002480003192729BE074608B500B601B701B8014A
:100258003508C107360803110318013E031935296B
:10026800C207370803110318013E03193C29C307C5
:10027800380803110318013E03194329C40708303D
:10028800B5000310BB0DBC0DBD0DBE0DB50B45294A
:100298002E08F00031080A128A15CD240A128A1194
:1002A800710883120313C6007008C5004508B5001D
:1002B8004608B600B701B8013508BB073608031170
:1002C8000318013E03196929BC07370803110318ED
:1002D800013E03197029BD07380803110318013EB0
:1002E80003197729BE072D08F00032080A128A156B
:1002F800CD240A128A11710883120313C6007008EC
:10030800C5004508B5004608B600B701B80135086C
:10031800BB07360803110318013E03199429BC07CB
:10032800370803110318013E03199B29BD07380834
:1003380003110318013E0319A229BE070830B500AE
:100348000310BB0DBC0DBD0DBE0DB50BA4292D08AA
:10035800F00031080A128A15CD240A128A11710890
:1003680083120313C6007008C5004508B500460887
:10037800B600B701B8013508BB07360803110318E2
:10038800013E0319C829BC07370803110318013EA9
:100398000319CF29BD07380803110318013E0319B3
:1003A800D629BE072E08F00033080A128A15CD2474
:1003B8000A128A11710883120313C6007008C50057
:1003C8004508B5004608B600B701B8013508C107A9
:1003D800360803110318013E0319F329C207370829
:1003E80003110318013E0319FA29C307380803113A
:1003F8000318013E0319012AC4072F08F000320828
:100408000A128A15CD240A128A117108831203135D
:10041800C6007008C5004508B5004608B600B70113
:10042800B8013508C107360803110318013E03193E
:100438001E2AC207370803110318013E0319252A8B
:10044800C307380803110318013E03192C2AC407EF
:100458002F08F00033080A128A15CD240A128A11CF
:10046800710883120313C6007008C5004508B5005B
:100478004608B600B701B80108300310B50DB60D2F
:10048800B70DB80DFF3E031D412A3508C1073608D0
:1004980003110318013E0319522AC2073708031132
:1004A8000318013E0319592AC30738080311031812
:1004B800013E0319602AC4073B08B5003C08B60092
:1004C8003D08B7003E08B80018300310B80CB70C48
:1004D800B60CB50CFF3E031D692A3508C10736085E
:1004E80003110318013E03197A2AC20737080311BA
:1004F8000318013E0319812AC3073808031103189A
:10050800013E0319882AC4070830B5000310BB0D43
:10051800BC0DBD0DBE0DB50B8A2A40083F07B500BE
:10052800B601B60D3508823EC50036080318013EEF
:10053800FF3EC600BC2A0130B5000310C10DC20D34
:10054800C30DC40DB50BA12ABE1FAB2AAC2AAD2A18
:1005580041140130B5000310BB0DBC0DBD0DBE0D1F
:10056800B50BAF2AFF30C5070318C60AFF30C60708
:10057800C31FBF2AC02A9F2ABF01BE1FC42AC52A7B
:10058800E12AFF303B05B500FF303C05B600FF30DF
:100598003D05B7007F303E05B800380837043604FB
:1005A80035040319D82AD92ADC2ABF01BF0AE12A4F
:1005B800411CDF2AE02AE12AD92A3F080319E52A43
:1005C800E62A172B0130C107003003180130C20793
:1005D800003003180130C307003003180130C40786
:1005E800441CF72AF82A172B4108B5004208B60020
:1005F8004308B7004408B8000130B900380DB80CFA
:10060800B70CB60CB50CB90B022B3808C400370868
:10061800C3003608C2003508C1000130C5070318F9
:10062800C60A0030C6074608803AFF0080307F02BD
:10063800031D202BFF304502031C232B242B2F2BBB
:100648007F3083120313C4008030C3000030C2001F
:100658000030C100602B831203134608803AFF0064
:1006680080307F02031D3A2B0130450203183D2BD1
:100678003E2B4A2B003083120313C4000030C30002
:100688000030C2000030C100BA01602B831203138E
:100698004508C000FF30C105FF30C2057F30C305E3
:1006A8000030C405401C592B5A2B5B2BC31740083C
:1006B800B5000310350CC4003A08B5003508C40469
:1006C8004408B0004308AF004208AE004108AD003E
:1006D80008007708803983120313A4007708F8000C
:1006E8007807AB00F61F792B7A2B7B2B2B142B0862
:1006F80003197F2B802B902B2B0A031D842B852B12
:100708008D2B0030F7000030F6000030F500003087
:10071800F400F617F701982B0030F7000030F600C8
:100728000030F5000030F40073088039F8007808CC
:10073800A4067308F8007807AC00F21FA42BA52BB9
:10074800A62B2C142C080319AA2BAB2BBB2B2C0A79
:10075800031DAF2BB02BB82B0030F3000030F20094
:100768000030F1000030F000F217F301C32B003025
:10077800F3000030F2000030F1000030F0007308A0
:10078800720471047004031DCA2BCB2BE42B0030B8
:10079800F7000030F6000030F5000030F40080303B
:1007A800F6047F30F7042408F8007808F70477087F
:1007B800F3007608F2007508F1007408F000452D82
:1007C8002B08031DE82BE92BF22B0030F300003037
:1007D800F2000030F1000030F000452D2B08F80041
:1007E800F9017908FB002C087802FA00031CFB03C6
:1007F8007A087F3EA5007B080318013E003EA6004C
:100808007708A3007608A2007508A1007408A00064
:100818000030F7000030F6000030F5000030F4003A
:100828000030AA000030A9000030A8000030A7005E
:10083800AC016E2C2C080319222C232C432C0130DC
:10084800F8000310A00DA10DA20DA30DF80B252C87
:100858000130F8000310F40DF50DF60DF70DF80B47
:100868002E2CAA1F382C392C3A2C74140130F8007D
:100878000310A70DA80DA90DAA0DF80B3C2C7308A1
:100888002302031D512C72082202031D512C7108EA
:100898002102031D512C70082002031C542C552CD6
:1008A8006A2C2A177008A0027108031C710F5D2CAE
:1008B8005E2CA1027208031C720F632C642CA20226
:1008C8007308031C730F692C6A2CA3020130F8000B
:1008D8007808AC071A302C02031C732C742C1E2CBD
:1008E800230822042104200403197B2C7C2C9B2C34
:1008F80027149B2C0130F8000310F40DF50DF60DAC
:10090800F70DF80B802CAA1F8A2C8B2C8C2C7414B6
:100918000130F8000310A70DA80DA90DAA0DF80BBA
:100928008E2CFF30A5070318A60AFF30A607F61F6E
:100938009E2C9F2C7E2CAC01AA1FA32CA42CC02C6F
:10094800FF302705F800FF302805F900FF3029059A
:10095800FA007F302A05FB007B087A0479047804C2
:100968000319B72CB82CBB2CAC01AC0AC02C741CD6
:10097800BE2CBF2CC02CB82C2C080319C42CC52C99
:10098800F62C0130F407003003180130F507003069
:1009980003180130F607003003180130F707771CF9
:1009A800D62CD72CF62C7408F8007508F9007608B0
:1009B800FA007708FB000130FC007B0DFB0CFA0CF9
:1009C800F90CF80CFC0BE12C7B08F7007A08F60010
:1009D8007908F5007808F4000130A5070318A60A7D
:1009E8000030A6072608803AFF0080307F02031DEA
:1009F800FF2CFF302502031C022D032D112DFF3083
:100A080083120313A5000030A6000030F700003061
:100A1800F6000030F5000030F400831203132608B6
:100A2800803AFF0080307F02031D1C2D0130250213
:100A380003181F2D202D2D2D83120313A501A601A8
:100A48000030F7000030F6000030F5000030F40008
:100A5800A401831203132508AB002B1C342D352D5C
:100A6800372DF6173B2D7F30F8007808F6052B0850
:100A7800F8000310780CF7002408F8007808F70449
:100A8800DB2B08000A128A11A9270A128A1183127D
:100A980003139F14033083160313C9009730C8004B
:100AA800C80B542DC90B542D831603135F08A300DC
:100AB8005E08A2005D08A1005C08A0000A128A1561
:100AC80016260A128A11831603132108B400200877
:100AD800B3006430B1000030B2000A128A15AD25A7
:100AE8000A128A11831603133108BA003208BB00B0
:100AF8000030BB1BFF30BC00BD0001300A128A1554
:100B080046270A128A11831603133D08D7003C08AA
:100B1800D6003B08D5003A08D4005708A300560869
:100B2800A2005508A1005408A0000A128A1516262A
:100B38000A128A11831603132108AB002008AA00A1
:100B48000A128A154F250A128A11831603132B08D5
:100B5800E5002A08E4005F08A3005E08A2005D081B
:100B6800A1005C08A0000A128A1516260A128A112A
:100B7800831603132108AD002008AC006430AA00D6
:100B88000030AB000A128A15F4240A128A1183165F
:100B980003132B08B4002A08B3000A30B100003050
:100BA800B2000A128A15AD250A128A118316031398
:100BB8003108BA003208BB000030BB1BFF30BC0054
:100BC800BD0001300A128A1546270A128A118316B7
:100BD80003133D08CF003C08CE003B08CD003A087F
:100BE800CC004F08A3004E08A2004D08A1004C08F5
:100BF800A0000A128A1516260A128A1183160313F0
:100C08002108AB002008AA000A128A154F250A12EB
:100C18008A11831603132B08E3002A08E2005F08F1
:100C2800A3005E08A2005D08A1005C08A0000A12EB
:100C38008A1516260A128A11831603132108AD0095
:100C48002008AC006430AA000030AB000A128A15F4
:100C5800F4240A128A11831603132B08CB002A08DE
:100C6800CA004B08AD004A08AC000A30AA000030A0
:100C7800AB000A128A15F4240A128A118316031388
:100C88002A08BA002B08BB000030BB1BFF30BC0091
:100C9800BD0001300A128A1546270A128A118316E6
:100CA80003133D08D3003C08D2003B08D1003A08A2
:100CB800D0005308A3005208A2005108A100500810
:100CC800A0000A128A1516260A128A11831603131F
:100CD8002108AB002008AA000A128A154F250A121B
:100CE8008A11831603132B08E1002A08E0005B0829
:100CF800A3005A08A2005908A1005808A0000A1227
:100D08008A1516260A128A118316031320088312DD
:100D180003138500033083160313C9009730C800F6
:100D2800C80B942EC90B942E8312031387018316C4
:100D38000313640883120313870008138816081620
:100D4800033083160313C9009730C800C80BAA2EB6
:100D5800C90BAA2E83120313870183160313620893
:100D680083120313870008178812081603308316A6
:100D78000313C9009730C800C80BC02EC90BC02E7A
:100D88008312031387018316031360088312031366
:100D98008700081788160812033083160313C90042
:100DA8009730C800C80BD62EC90BD62E4B2D0A1269
:100DB8008A1110280B1DE12EE22EF22E080D080DC7
:100DC8000139C7000130C706C70CC70C0808470619
:100DD8007F3947068800013081000B110C1FF52E62
:100DE800F62E9F2F0130D2070318D30A0030D307FD
:100DF8005218FF2E002F2E2F033083120313C80022
:100E08009730C700C70B062FC80B062F8312031392
:100E18001F08C3391C389F001E08C700C801C90134
:100E2800CA014A08F3004908F2004808F1004708D7
:100E3800F00000300A128A158E260A128A117308E9
:100E480083160313DB007208DA007108D9007008F2
:100E5800D8009F2F033083120313C8009730C700B0
:100E6800C70B342FC80B342F831203131F08C33941
:100E780018389F001E08C700C801C901CA014A08DE
:100E8800F3004908F2004808F1004708F000003074
:100E98000A128A158E260A128A11730883120313FE
:100EA800D1007208D0007108CF007008CE0043301E
:100EB800B000FA30AF000030AE000030AD00433073
:100EC800F3007F30F2000030F1000030F0005108EC
:100ED800F7005008F6004F08F5004E08F4000A1213
:100EE8008A116D230A128A11730883120313B4003E
:100EF8007208B3007108B2007008B1000A128A11B2
:100F080028200A128A118312031330088316031348
:100F1800DF00831203132F0883160313DE008312E6
:100F280003132E0883160313DD00831203132D0801
:100F380083160313DC0083124D08FF004C088A0057
:100F48004B0E8300FE0E7E0E0900831603178801E0
:100F580089018316031386018601870188018501AB
:100F68008312031385018601870188017030831677
:100F780003138F040F14811281110730810401308B
:100F88008312031381000B118B160B138B17C030C0
:100F9800831603178800033083160313890083120E
:100FA80003131F083F3980389F000330831603134B
:100FB800A1009730A000A00BDF2FA10BDF2F831615
:100FC80003139F131F129F12831203131F140C1372
:100FD800831603130C17080064008001840A0406B2
:080FE800031900340406F12F87
:10199A00F800F401F5017008F200F3017208F6008C
:1019AA007308F700781CDA2CDB2CE12C7608F40794
:1019BA000318F50A7708F50701300310F60DF70D3D
:1019CA00FF3E031DE22C0310F80C7808031DEE2CD1
:1019DA00EF2CD72C7508F1007408F0000800831664
:1019EA000313B001AD1FFA2CFB2C022DAC09AD0973
:1019FA00AC0A0319AD0AB001B00AAB1F052D062DBA
:101A0A000B2DAA09AB09AA0A0319AB0A2A082B0447
:101A1A000319102D112D402DAF01AF0A1F2D0130D2
:101A2A000310AA0DAB0DFF3E031D152D0130AE00AC
:101A3A002E08AF07AB1F222D232D142D2B082D02A4
:101A4A00031D292D2A082C02031C2C2D2D2D332D84
:101A5A002A08AC022B08031CAD03AD0201300310A7
:101A6A00AB0CAA0CFF3E031D342D0130AF02031D3F
:101A7A003F2D402D232D30080319442D452D4A2D85
:101A8A00AC09AD09AC0A0319AD0A2D08AB002C0844
:101A9A00AA000800852DC030AA000030AB00AC2D8A
:101AAA00F930AA000030AB00AC2DA430AA000030F7
:101ABA00AB00AC2DB030AA000030AB00AC2D993091
:101ACA00AA000030AB00AC2D9230AA000030AB0067
:101ADA00AC2D8230AA000030AB00AC2DF830AA0041
:101AEA000030AB00AC2D8030AA000030AB00AC2D2A
:101AFA009030AA000030AB00AC2DAA01AB01AC2D8E
:101B0A00831603132B08003A03198C2D822D2A08F9
:101B1A00003A0319502D013A0319552D033A0319B6
:101B2A005A2D013A03195F2D073A0319642D013A18
:101B3A000319692D033A03196E2D013A0319732DFE
:101B4A000F3A0319782D013A03197D2D822D0800C9
:101B5A0083160313B701B21FB32DB42DBB2DB109E0
:101B6A00B209B10A0319B20AB701B70AB41FBE2DE6
:101B7A00BF2DC82DB309B409B30A0319B40A013039
:101B8A00B5003508B706B801B9013108320403199E
:101B9A00CF2DD02D072EB601B60ADE2D0130031047
:101BAA00B10DB20DFF3E031DD42D0130B50035082D
:101BBA00B607B21FE12DE22DD32D01300310B80D67
:101BCA00B90DFF3E031DE32D32083402031DEF2D2C
:101BDA0031083302031CF22DF32DFA2D3108B3021A
:101BEA003208031CB403B402381401300310B20CD7
:101BFA00B10CFF3E031DFB2D0130B602031D062E5C
:101C0A00072EE22D370803190B2E0C2E112EB809B8
:101C1A00B909B80A0319B90A3908B2003808B10073
:101C2A000800031083160313220D230DA9002908A7
:101C3A00031D202E212E2A2E0030A3000030A200E0
:101C4A000030A1000030A0008D2E2008A400210839
:101C5A00A5002208A6002308A7001F300310A70C1E
:101C6A00A60CA50CA40CFF3E031D332E2408A800C5
:101C7A00A217FF30A005FF30A105FF30A2050030F2
:101C8A00A3059630A902A91F4B2E4C2E662E2908B1
:101C9A00803A973E0318522E532E542E212E01308D
:101CAA000310A30CA20CA10CA00CFF3E031D552E81
:101CBA000130A4002408A907031D642E652E542EA2
:101CCA007D2E20302902031C6B2E6C2E782E212E9D
:101CDA000130A4000310A00DA10DA20DA30DA40BA9
:101CEA006F2E0130A9022908031D7C2E7D2E6D2E30
:101CFA0028080319812E822E8D2EA009A109A20976
:101D0A00A309A00A0319A10A0319A20A0319A30A1B
:101D1A000800F80078080319932E942EA82EF31FB2
:101D2A00972E982EA82E7009FA007109FB007209E5
:101D3A00FC007309FD00FA0A0319FB0A0319FC0ADD
:101D4A000319FD0AB02E7308FD007208FC00710821
:101D5A00FB007008FA007308720471047004031D12
:101D6A00B72EB82EC12E0030F3000030F20000303A
:101D7A00F1000030F000452F9630F900D12E0130E5
:101D8A00F4007408F90701300310FD0CFC0CFB0C7D
:101D9A00FA0CFF3E031DC92EFE307D05031DD62E0B
:101DAA00D72EC42EF32E0130F4007408F90701303F
:101DBA00FA07003003180130FB070030031801301E
:101DCA00FC07003003180130FD0701300310FD0C39
:101DDA00FC0CFB0CFA0CFF3E031DEB2EFF307D05BD
:101DEA00031DF82EF92ED82E052F0130F9020130E5
:101DFA00F4000310FA0DFB0DFC0DFD0DF40BFE2E85
:101E0A00FC1B082F092F0F2F0230790203180E2FFF
:101E1A000F2FFA2E7918122F132F1B2FFF30FA05C6
:101E2A00FF30FB057F30FC05FF30FD050310F90C80
:101E3A007908F400F501F601F70118300310F40DE2
:101E4A00F50DF60DF70DFF3E031D232F7408FA0456
:101E5A007508FB047608FC047708FD047808031962
:101E6A00372F382F3D2FF31F3B2F3C2F3D2FFD17C8
:101E7A007D08F3007C08F2007B08F1007A08F00084
:101E8A00080083160313C200420803194D2F4E2F70
:101E9A00622FBD1F512F522F622F3A09C4003B09EE
:101EAA00C5003C09C6003D09C700C40A0319C50A92
:101EBA000319C60A0319C70A6A2F3D08C7003C0856
:101ECA00C6003B08C5003A08C4003D083C043B0470
:101EDA003A04031D712F722F7B2F0030BD00003092
:101EEA00BC000030BB000030BA00FF2F9630C300A0
:101EFA008B2F0130BE003E08C30701300310C70C08
:101F0A00C60CC50CC40CFF3E031D832FFE304705CB
:101F1A00031D902F912F7E2FAD2F0130BE003E085A
:101F2A00C3070130C407003003180130C507003069
:101F3A0003180130C607003003180130C707013003
:101F4A000310C70CC60CC50CC40CFF3E031DA52FFD
:101F5A00FF304705031DB22FB32F922FBF2F013039
:101F6A00C3020130BE000310C40DC50DC60DC70D56
:101F7A00BE0BB82FC61BC22FC32FC92F0230430274
:101F8A000318C82FC92FB42F4318CC2FCD2FD52F04
:101F9A00FF30C405FF30C5057F30C605FF30C705D1
:101FAA000310C30C4308BE00BF01C001C1011830B1
:101FBA000310BE0DBF0DC00DC10DFF3E031DDD2F69
:101FCA003E08C4043F08C5044008C6044108C704C3
:101FDA0042080319F12FF22FF72FBD1FF52FF62F05
:101FEA00F72FC7174708BD004608BC004508BB00C5
:061FFA004408BA000800D3
:08400000FF3FFF3FFF3FFF3FC0
:04400E00D420FF3F7C
:00000001FF
