:060000000A128A1100291A
:1002000029213E210313831206180F218618152178
:1002100006191921861A1F21061A232104290618F6
:100220000F29850A051A85010800861815298503F6
:10023000080006191929870A071A87010800861A73
:100240001F2987030800061A2329050807078800C5
:10025000080083160317880189018316031385019B
:100260008701880106148614061506168616831261
:100270000313850186018701880108000313831693
:0A0280000F138F160F160F1408005D
:04400E00D420FF3F7C
:00000001FF
